:100000000C947C000C94A6000C94A6000C94A60002
:100010000C94A6000C94A6000C94A6000C94A600C8
:100020000C94A6000C94A6000C94A6000C94A600B8
:100030000C94A6000C94A6000C94A6000C94A600A8
:100040000C94A6000C94A6000C9482060C94A600B6
:100050000C94F6060C94CC060C94A6000C94A60006
:100060000C94A6000C94A6000C942C070C94A600EB
:100070000C94A6000C94A6000C94A6000C94A60068
:100080000C94A6000C94A6000C94A600000022007C
:10009000250028002B0004040404040404040202C4
:1000A000020202020202030303030303030301012A
:1000B0000101010101010102040810204080010238
:1000C0000408102040800102040810204080010232
:1000D000040810204080000000000403080700000E
:1000E00000010200090A00000000000000000000FA
:1000F000000000000000500811241FBECFEFD0E424
:10010000DEBFCDBF11E0A0E0B1E0E4EFFCE100E034
:100110000BBF02C007900D92A03AB107D9F723E0B8
:10012000A0EAB1E001C01D92AA31B207E1F710E0E8
:10013000CCE7D0E004C02197FE010E940E0BCB3724
:10014000D107C9F70E9492080C94780E0C94000015
:100150000895089590E0FC01EA52FF4F2491FC01BC
:10016000EA54FF4F34918A569F4FFC0184918823B3
:1001700059F12223C1F021502A30A8F4E22FF0E0F7
:10018000EC53FF4F0C940E0BE900ED00CE00E500A0
:10019000D300D300F000F600FA0000019091800037
:1001A0009F7790938000E82FF0E0EE0FFF1FE45759
:1001B000FF4FA591B4918FB7F894EC91611124C0D1
:1001C00030953E233C938FBF0895909180009F7D92
:1001D000E8CF94B59F7794BDE6CF94B59F7DFBCFD4
:1001E0009091B0009F779093B000DDCF9091B000D8
:1001F0009F7DF9CF909190009F7790939000D3CFFF
:10020000909190009F7DF9CF3E2BDCCF3FB7F894C3
:100210008091E9019091EA01A091EB01B091EC018C
:1002200026B5A89B05C02F3F19F00196A11DB11D51
:100230003FBFBA2FA92F982F8827BC01CD01620F8D
:10024000711D811D911D43E0660F771F881F991F47
:100250004A95D1F70895AF92BF92CF92DF92EF9275
:10026000FF920F931F93CF93DF936C017B018B0160
:10027000040F151FEB015E01AE18BF08C017D107B0
:1002800059F06991D601ED91FC910190F081E02D3A
:10029000C6010995892B79F7C501DF91CF911F918F
:1002A0000F91FF90EF90DF90CF90BF90AF900895A7
:1002B000FC01538D448D252F30E0842F90E0821B6C
:1002C000930B541710F0CF96089501970895FC01F1
:1002D000918D828D981761F0A28DAE0FBF2FB11D49
:1002E0005D968C91928D9F5F9F73928F90E00895A1
:1002F0008FEF9FEF0895FC01918D828D981731F05B
:10030000828DE80FF11D858D90E008958FEF9FEFAE
:100310000895FC01918D228D892F90E0805C9F4F84
:10032000821B91098F739927089583E692E00E94BA
:10033000890121E0892B09F420E0822F0895FC0136
:10034000A48DA80FB92FB11DA35ABF4F2C91848D36
:1003500090E001968F739927848FA689B7892C9393
:10036000A089B1898C91837080648C93938D848DE6
:10037000981306C00288F389E02D80818F7D8083E9
:100380000895EF92FF920F931F93CF93DF93EC01A9
:1003900081E0888F9B8D8C8D98131AC0E889F9892C
:1003A000808185FF15C09FB7F894EE89FF8960832F
:1003B000E889F98980818370806480839FBF81E0B0
:1003C00090E0DF91CF911F910F91FF90EF900895F2
:1003D000F62E0B8D10E00F5F1F4F0F731127E02ECD
:1003E0008C8D8E110CC00FB607FCFACFE889F98905
:1003F000808185FFF5CFCE010E949F01F1CFEB8D6B
:10040000EC0FFD2FF11DE35AFF4FF0829FB7F894D8
:100410000B8FEA89FB8980818062CFCFCF93DF93F6
:10042000EC01888D8823B9F0AA89BB89E889F9890C
:100430008C9185FD03C0808186FD0DC00FB607FC41
:10044000F7CF8C9185FFF2CF808185FFEDCFCE0174
:100450000E949F01E9CFDF91CF91089580E090E065
:10046000892B29F00E94950181110E94000080E0F3
:1004700090E0892B49F080E090E0892B29F00E94E0
:10048000000081110C94000008952091C101260FF5
:100490003327331F21323105ECF420913902FC015E
:1004A00090E080E0243069F082E00895A091C101DD
:1004B0002191AC014F555E4FA40FB52FB11D2C9368
:1004C0000196861798F38091C101680F6093C1016E
:1004D00080E0089581E008951092390281E08093D0
:1004E00038021092130261E081E10E94AA0061E0EB
:1004F00080E10E94AA00E9EBF0E080818E7F80839A
:1005000080818D7F808380E28093B80085E4809332
:10051000BC000895CF93DF9391E09093A0018823CE
:10052000B9F0C091B800D091BA008091BC008A7B2C
:100530008093BC0060E081E10E94AA0060E080E15D
:100540000E94AA000E946C02D093BA00C093B80027
:10055000DF91CF9108958F929F92AF92BF92CF92E9
:10056000DF92EF92FF920F931F93CF93DF93D0917F
:100570006202D13208F0D7C0182FC09161020E94E8
:1005800006016B017C018091390281116BC082E010
:1005900080933902109338028FEF809337021092C4
:1005A0003602D0933502A1E4B2E0E5E1F2E080E06A
:1005B000D81391C01092140280911402CC0FC82B52
:1005C000C093140280911302813009F088C0109208
:1005D00013020E9406016B017C018091140280933A
:1005E000BB0080913B0290913C02A0913D02B091F2
:1005F0003E02892B8A2B8B2BA1F00E9406010091D1
:100600003B0210913C0220913D0230913E026C1958
:100610007D098E099F09061717072807390708F46F
:1006200042C08091BC0083FDD8CF85EC8093BC0094
:100630000E9406016B017C0180913902823009F42D
:1006400050C0809137028F3F09F46FC0809137020C
:10065000803209F46CC080913702803309F469C09C
:1006600084E026C080913B0290913C02A0913D0223
:10067000B0913E02892B8A2B8B2B09F484CF0E94E8
:10068000060180903B0290903C02A0903D02B09009
:100690003E026C197D098E099F0986169706A806E9
:1006A000B90608F070CF80913A020E948A0285E074
:1006B000109240021092620210923F02DF91CF919D
:1006C0001F910F91FF90EF90DF90CF90BF90AF9070
:1006D0009F908F9008959D9191938F5F69CF85EE44
:1006E000A5CF80913B0290913C02A0913D02B09138
:1006F0003E02892B8A2B8B2B09F49ECF0E94060188
:1007000000913B0210913C0220913D0230913E024B
:100710006C197D098E099F090617170728073907E5
:1007200008F08ACFC0CF81E0C3CF80E0C1CF82E0A4
:10073000BFCF83E0BDCFCF93DF93EA01DC011196F9
:100740008D919C91DC01ED91FC910280F381E02D73
:100750000995C817D90729F481E00E94AB0291E0FE
:10076000811190E0892FDF91CF910895CF93DF938E
:10077000EC018B818823A1F0888191E090933F0266
:1007800080936102109240021092620281E00E9406
:10079000AB0291E0811190E0892FDF91CF91089514
:1007A0001092F2011092F101109240021092620236
:1007B0000E946C0288EA90E09093EE018093ED0134
:1007C00089EA90E09093F0018093EF0181E08B83C0
:1007D000CE010E94B603982F8111CECFDDCF0895B0
:1007E000E091F2018091F101E81730F4F0E0ED5072
:1007F000FE4F808190E008958FEF9FEF08959091D4
:10080000F2018091F1012FEF3FEF981748F4E92FA3
:10081000F0E0ED50FE4F208130E09F5F9093F201B9
:10082000C90108958091F1019091F201891B990B02
:100830000895CF92DF92EF92FF920F931F93CF9381
:10084000DF937C01CB018A0120913F02222389F0B2
:10085000EB016B01C40ED51ECC15DD0569F0699165
:10086000D701ED91FC910190F081E02DC701099530
:10087000F3CF642F0E944502C801DF91CF911F91F1
:100880000F91FF90EF90DF90CF900895CF93DF937B
:100890001F92CDB7DEB7698320913F022223F9F082
:1008A00020916202203258F021E030E0FC013383D5
:1008B000228390E080E00F90DF91CF9108958091A6
:1008C0004002E82FF0E0EF5BFD4F998190838F5F4E
:1008D000809340028093620281E090E0ECCF61E07F
:1008E000CE0101960E944502F7CF90E080E0089586
:1008F000FC0101900020E9F73197AF01481B590B2B
:10090000BC0183E692E00C942B018F929F92AF92F0
:10091000BF920F931F93CF93DF93CDB7DEB7A1970D
:100920000FB6F894DEBF0FBECDBF19A2423008F457
:100930004AE08E010F5D1F4F842E912CB12CA12C0B
:10094000A50194010E94EC0AE62FB901CA01EA3020
:10095000F4F4E05DD801EE938D01232B242B252B9D
:1009600079F790E080E0109719F0CD010E947804AB
:10097000A1960FB6F894DEBF0FBECDBFDF91CF9129
:100980001F910F91BF90AF909F908F900895E95C59
:10099000E1CFCF93DF930E947804EC018AE291E0EB
:1009A0000E9478048C0F9D1FDF91CF9108952F92A4
:1009B0003F924F925F926F927F928F929F92AF92EF
:1009C000BF92CF92DF92EF92FF920F931F93CF933C
:1009D000DF938093130380910C0390910D03DC014E
:1009E00014962D913C911597232B81F02C9131E099
:1009F00030933F02209361021092400210926202F3
:100A000041E050E063E173E00E949B03C0900C035F
:100A1000D0900D0310E000E082E0A82EB12CD1E0D0
:100A200033243A9495EE892E25EC922EF60184819A
:100A300095817501E01AF10A8E159F0508F47C0175
:100A4000D6012C900E9406012B013C0180913902B5
:100A500081116FC0CE2DC13208F0C0E2D0933902AF
:100A600021E0C5018E199F090817190708F420E035
:100A70002093380230923702109236028FEF8C0F9B
:100A800080933502D093140280911402220C282AFC
:100A90002092140280911302813009F095C01092C7
:100AA00013020E9406012B013C01809114028093E5
:100AB000BB0080913B0290913C02A0913D02B0911D
:100AC0003E02892B8A2B8B2BA1F00E9406012091DC
:100AD0003B0230913C0240913D0250913E0264192C
:100AE000750986099709261737074807590708F433
:100AF00041C08091BC0083FDD8CF9092BC000E9481
:100B000006012B013C0180913902813009F45FC05C
:100B1000809136028C1710F4C0913602A5E1B2E044
:100B2000E3EFF1E080E08C1751F19D9191938F5F9D
:100B3000FACF80913B0290913C02A0913D02B0918E
:100B40003E02892B8A2B8B2B09F480CF0E94060151
:100B500020913B0230913C0240913D0250913E0277
:100B60006419750986099709261737074807590731
:100B700008F06CCF80913A020E948A02C0E0109285
:100B8000F201C093F101CE151F0409F048C0F8012D
:100B9000E45FFC4F3F01C301801B910B8C509340DD
:100BA0008E159F05B0F5D60111968D919C91DC01B3
:100BB000ED91FC910284F385E02D0995F301878383
:100BC000FFEF6F1A7F0AE7CF8092BC0098CF809129
:100BD0003B0290913C02A0913D02B0913E02892BD4
:100BE0008A2B8B2B09F48FCF0E94060120913B02A8
:100BF00030913C0240913D0250913E0264197509CA
:100C000086099709261737074807590708F07BCF49
:100C1000B1CF0E0D1F1D0230110508F407CF8091D2
:100C2000130390911403982789279827DF91CF9178
:100C30001F910F91FF90EF90DF90CF90BF90AF90FA
:100C40009F908F907F906F905F904F903F902F90EC
:100C50000895809313037093140360931503809198
:100C60000C0390910D03FC01248135812330310563
:100C700080F0208131E030933F0220936102109296
:100C800040021092620243E050E063E173E00C9492
:100C90009B03089585ED8093BC0080913B02909169
:100CA0003C02A0913D02B0913E020796A11DB11DEC
:100CB00023E0B695A795979587952A95D1F720912A
:100CC000BC0024FD03C010923902089540913B02FC
:100CD00050913C0260913D0270913E02452B462BA3
:100CE000472B69F30097A105B10541F02AE12A9548
:100CF000F1F700C00197A109B109E1CF80913A0253
:100D00000C948A021F920F920FB60F9211242F9308
:100D10003F938F939F93AF93BF938091E501909101
:100D2000E601A091E701B091E8013091E40126E0ED
:100D3000230F2D3758F50296A11DB11D2093E40114
:100D40008093E5019093E601A093E701B093E80159
:100D50008091E9019091EA01A091EB01B091EC0141
:100D60000196A11DB11D8093E9019093EA01A09322
:100D7000EB01B093EC01BF91AF919F918F913F91A7
:100D80002F910F900FBE0F901F90189529E8230FF9
:100D90000396A11DB11DD2CF1F920F920FB60F92D5
:100DA00011240BB60F922F933F934F935F936F9342
:100DB0007F938F939F93AF93BF93EF93FF9383E6BC
:100DC00092E00E949F01FF91EF91BF91AF919F919F
:100DD0008F917F916F915F914F913F912F910F90E4
:100DE0000BBE0F900FBE0F901F9018951F920F9281
:100DF0000FB60F9211240BB60F922F938F939F93E0
:100E0000EF93FF93E0917302F09174028081E0917F
:100E10007902F0917A0282FD1DC0908180917C025E
:100E20008F5F8F7320917D02821741F0E0917C02E9
:100E3000F0E0ED59FD4F958F80937C02FF91EF918B
:100E40009F918F912F910F900BBE0F900FBE0F901F
:100E50001F9018958081F2CF1F920F920FB60F92BC
:100E600011240BB60F922F933F934F935F936F9381
:100E70007F938F939F93AF93BF93EF93FF93809153
:100E8000B900887F803609F44DC008F040C0883230
:100E900009F4A9C028F5803109F49DC0C8F488235D
:100EA00009F4FBC0883009F496C0FF91EF91BF911F
:100EB000AF919F918F917F916F915F914F913F91F2
:100EC0002F910F900BBE0F900FBE0F901F90189593
:100ED000883109F488C0803241F78093370214C00A
:100EE000803409F49DC040F48033B9F38833E9F6C7
:100EF0008093370285ECB0C0803509F485C0883511
:100F000009F496C0883489F60E944A06CECF883903
:100F100009F48CC038F5883729F050F4883611F080
:100F2000803719F683E0809339021092E30157C0AD
:100F3000883809F47BC0803919F0803809F0B5CFC2
:100F40008091E301803208F071C0E091E30181E01B
:100F50008E0F8093E3018091BB00F0E0ED53FE4FD4
:100F600080833DC0803B39F0E0F4803A09F479C0D9
:100F7000883A09F09ACF84E0809339021092C20136
:100F80001092C101E091ED01F091EE01099580917F
:100F9000C10181110FC081E08093C1011092A101B4
:100FA00009C0803C09F4A6CF883C09F4A3CF883B54
:100FB00009F07BCFE091C20181E08E0F8093C201E6
:100FC000F0E0EF55FE4F80818093BB009091C2010D
:100FD0008091C10129C0809114028093BB0085ECEF
:100FE0008093BC0062CF90913602809135029817B1
:100FF00058F5E091360281E08E0F80933602F0E0E2
:10100000EB5EFD4F8081E9CFE091360281E08E0FEB
:10101000809336028091BB00F0E0EB5EFD4F808351
:1010200090913602809135029817C8F285E8D8CFA2
:10103000E091360281E08E0F809336028091BB00F2
:10104000F0E0EB5EFD4F80838091380281115CCF30
:1010500081E08093130284EA8093BC0010923902ED
:1010600024CF85EC8093BC00109239028091E3017B
:10107000803230F4E091E301F0E0ED53FE4F108256
:101080006091E30170E0E091EF01F091F00183ECF9
:1010900091E009951092E30108CF1092370234CF06
:1010A000E3E6F2E01382128288EE93E0A0E0B0E083
:1010B00084839583A683B7832AE031E0318320833C
:1010C00025EC30E03587248724EC30E0378726870D
:1010D00020EC30E0318B208B21EC30E0338B228B05
:1010E00022EC30E0358B248B26EC30E0378B268BDE
:1010F000118E128E138E148EE0E0F3E013821282B2
:1011000084839583A683B7838CE191E09183808368
:10111000ECE0F3E012821482138280E890E0968380
:1011200085830895789484B5826084BD84B5816098
:1011300084BD85B5826085BD85B5816085BD8091A2
:101140006E00816080936E0010928100809181001A
:101150008260809381008091810081608093810012
:10116000809180008160809380008091B1008460D4
:101170008093B1008091B00081608093B000809135
:1011800091008260809391008091910081608093B2
:1011900091008091900081608093900080917A000E
:1011A000846080937A0080917A00826080937A00D4
:1011B00080917A008E7F80937A0080917A00806897
:1011C00080937A001092C100E0917302F091740252
:1011D00082E08083E0916F02F09170021082E091D2
:1011E0007102F091720287E6808310927B02E09197
:1011F0007702F091780286E08083E0917502F091A9
:101200007602808180618083E0917502F0917602A0
:10121000808188608083E0917502F0917602808100
:1012200080688083E0917502F091760280818F7DE5
:1012300080838DE291E00E94C90480E092E0909367
:10124000100380930F038DE391E00E94C90487E4AB
:1012500091E00E94780486E090E00E94530DEC013A
:1012600088E4888380E093E09A8389831B8280E20C
:1012700090E09D838C83D0930D03C0930C03109258
:10128000F2011092F10110924002109262020E944B
:101290006C0288EA90E09093EE018093ED0189EA78
:1012A00090E09093F0018093EF0181E08B83CE0179
:1012B0000E94B603811105C088E591E00E94C9042F
:1012C000FFCF82E791E00E94C90460910F03709103
:1012D00010038091110390911203682B792B716B8D
:1012E00081E00E94290660E070E883E00E94290600
:1012F00070E060E082E00E94290681E00E94D7044D
:1013000097FFFBCF80E00E94D70420910E035C0181
:10131000022E02C0B694A7940A94E2F7222331F079
:10132000A11438E0B30610F080EFB82A80910F03C3
:10133000909110036FE6C62E62E1D62E63E0E62E92
:1013400060E4F62E811534E09307B1F190F4009734
:1013500009F4A5C07FE6C72E72E1D72E73E8E72E09
:1013600070E4F72E8115924039F1C12CD12C760111
:1013700023C04FE6C42E42E1D42E43E0E42E4FE3D7
:10138000F42E811538E09307B9F03FE6C32E32E121
:10139000D32E33E8E32E3EE3F32E81153AE0930794
:1013A00059F08115964009F75FE6C52E52E1D52E1A
:1013B00053E8E52E5FE3F52E60E070E880E090E012
:1013C00004C095958795779567952A95D2F70E94E1
:1013D0002C0C9B01AC01C701B6010E94890B6B016B
:1013E0007C01B501BB0C880B990B0E942C0C9B0156
:1013F000AC01C701B6010E94E10C20E030E04AE7F1
:1014000053E40E94890B20E030E04AE754E40E9454
:10141000E10C20E030E44CE953E40E94E10C20E0D0
:1014200030E44CE954E40E94170B6B017C014B0142
:101430005C01AC019B010E944E0D8823C9F180E93B
:1014400091E00E9478048CE991E00E94C9040E9416
:1014500006016B017C0188E8882E83E1982EA12C7F
:10146000B12C0E9406016C197D098E099F09683E06
:10147000734081059105A8F381E0881A9108A108BD
:10148000B10828EEC20E23E0D21EE11CF11C81142B
:101490009104A104B10429F70E942E0216CF96EA06
:1014A000C92E9BE9D92E94ECE92E90E4F92E84CF35
:1014B00026013701E89477F82FEF3FEF4FE75FE71A
:1014C000C301B2010E944E0D81110DC02FEF3FEFFD
:1014D0004FE75FE7C301B2010E94840B18161CF4AA
:1014E00084E991E0AECF2FEF3FEF4FE75FE4C70114
:1014F000B6010E94DC0C18161CF488E991E0A1CF1B
:101500002FEF3FEF4FE75FECC701B6010E94840B5E
:1015100087FDF3CF20E030E0A901C701B6010E94AA
:10152000840B87FF0BC06DE283E692E00E94C1014D
:1015300046015701B7FAB094B7F8B0942AE037EDF6
:1015400043EA5BE3C501B4010E94180B4B015C0147
:101550000E94FB0B6B017C010E942A0C9B01AC01D9
:10156000C501B4010E94170B4B015C014AE0C701A1
:10157000B6010E9485046EE283E692E00E94C101FA
:1015800020E030E040E251E4C501B4010E94E10CEA
:101590004B015C010E94FB0B6B01F12CE12C4AE03A
:1015A000C701B6010E948504C701B6010E942A0C3A
:1015B0009B01AC01C501B4010E94170B20E030E093
:1015C00040E251E40E94E10C0E94FB0B90E080E0BD
:1015D0004AE00E94850437CFA1E21A2EAA1BBB1B4A
:1015E000FD010DC0AA1FBB1FEE1FFF1FA217B307EF
:1015F000E407F50720F0A21BB30BE40BF50B661F05
:10160000771F881F991F1A9469F7609570958095C8
:1016100090959B01AC01BD01CF010895EE0FFF1F16
:101620000024001C0BBE0790F691E02D0994505841
:10163000BB27AA270E942F0B0C94A20C0E94940C8B
:1016400038F00E949B0C20F039F49F3F19F426F4E7
:101650000C94910C0EF4E095E7FB0C948B0CE92FA5
:101660000E94B30C58F3BA176207730784079507F3
:1016700020F079F4A6F50C94D50C0EF4E0950B2E21
:10168000BA2FA02D0B01B90190010C01CA01A001D4
:101690001124FF27591B99F0593F50F4503E68F12F
:1016A0001A16F040A22F232F342F4427585FF3CF70
:1016B000469537952795A795F0405395C9F77EF441
:1016C0001F16BA0B620B730B840BBAF09150A1F08A
:1016D000FF0FBB1F661F771F881FC2F70EC0BA0F10
:1016E000621F731F841F48F4879577956795B79598
:1016F000F7959E3F08F0B0CF9395880F08F0992793
:10170000EE0F9795879508950E94670C08F481E085
:1017100008950E949D0B0C94A20C0E949B0C58F003
:101720000E94940C40F029F45F3F29F00C948B0C3C
:1017300051110C94D60C0C94910C0E94B30C68F3CC
:101740009923B1F3552391F3951B550BBB27AA277A
:1017500062177307840738F09F5F5F4F220F331FB4
:10176000441FAA1FA9F335D00E2E3AF0E0E832D07C
:1017700091505040E695001CCAF72BD0FE2F29D07F
:10178000660F771F881FBB1F261737074807AB0751
:10179000B0E809F0BB0B802DBF01FF2793585F4FC6
:1017A0003AF09E3F510578F00C948B0C0C94D60CBB
:1017B0005F3FE4F3983ED4F3869577956795B795A8
:1017C000F7959F5FC9F7880F911D9695879597F9B3
:1017D0000895E1E0660F771F881FBB1F621773072C
:1017E0008407BA0720F0621B730B840BBA0BEE1F41
:1017F00088F7E09508950E94BB0C88F09F5798F0F9
:10180000B92F9927B751B0F0E1F0660F771F881F05
:10181000991F1AF0BA95C9F714C0B13091F00E941F
:10182000D50CB1E008950C94D50C672F782F88273C
:10183000B85F39F0B93FCCF3869577956795B39546
:10184000D9F73EF490958095709561957F4F8F4FB5
:101850009F4F0895E89409C097FB3EF490958095BA
:10186000709561957F4F8F4F9F4F9923A9F0F92F66
:1018700096E9BB279395F695879577956795B795E4
:10188000F111F8CFFAF4BB0F11F460FF1BC06F5FCA
:101890007F4F8F4F9F4F16C0882311F096E911C0DC
:1018A000772321F09EE8872F762F05C0662371F0FD
:1018B00096E8862F70E060E02AF09A95660F771F11
:1018C000881FDAF7880F9695879597F90895990FED
:1018D0000008550FAA0BE0E8FEEF16161706E807FA
:1018E000F907C0F012161306E407F50798F0621B1B
:1018F000730B840B950B39F40A2661F0232B242BF0
:10190000252B21F408950A2609F4A140A6958FEF0E
:10191000811D811D089597F99F6780E870E060E060
:1019200008959FEF80EC089500240A941616170678
:1019300018060906089500240A94121613061406C0
:1019400005060895092E0394000C11F4882352F023
:10195000BB0F40F4BF2B11F460FF04C06F5F7F4FDB
:101960008F4F9F4F089557FD9058440F551F59F0C2
:101970005F3F71F04795880F97FB991F61F09F3F7C
:1019800079F087950895121613061406551FF2CFA5
:101990004695F1DF08C0161617061806991FF1CFF5
:1019A00086957105610508940895E894BB2766271C
:1019B0007727CB0197F908950E94670C08F48FEF01
:1019C00008950E94F40C0C94A20C0E94940C38F020
:1019D0000E949B0C20F0952311F00C948B0C0C941E
:1019E000910C11240C94D60C0E94B30C70F3959FAB
:1019F000C1F3950F50E0551F629FF001729FBB2706
:101A0000F00DB11D639FAA27F00DB11DAA1F649FA1
:101A10006627B00DA11D661F829F2227B00DA11D54
:101A2000621F739FB00DA11D621F839FA00D611DDA
:101A3000221F749F3327A00D611D231F849F600DFB
:101A4000211D822F762F6A2F11249F5750409AF024
:101A5000F1F088234AF0EE0FFF1FBB1F661F771FB0
:101A6000881F91505040A9F79E3F510580F00C947B
:101A70008B0C0C94D60C5F3FE4F3983ED4F3869520
:101A800077956795B795F795E7959F5FC1F7FE2B1B
:101A9000880F911D9695879597F908950E94670C78
:101AA000880B990B08950F931F93CF93DF93823088
:101AB000910510F482E090E0E0911803F091190391
:101AC00030E020E0B0E0A0E0309799F42115310536
:101AD00009F44AC0281B390B24303105D8F58A8116
:101AE0009B816115710589F1FB0193838283FE015E
:101AF00011C0408151810281138148175907E0F0DC
:101B00004817590799F4109761F012960C931297A1
:101B100013961C933296CF01DF91CF911F910F91B5
:101B200008950093180310931903F4CF211531057C
:101B300051F04217530738F0A901DB019A01BD01AA
:101B4000DF01F801C1CFEF01F9CF90931903809322
:101B50001803CDCFFE01E20FF31F81939193225022
:101B6000310939832883D7CF209116033091170389
:101B7000232B41F42091020130910301309317038C
:101B800020931603209100013091010121153105A8
:101B900041F42DB73EB74091040150910501241B3B
:101BA000350BE0911603F0911703E217F307A0F449
:101BB0002E1B3F0B2817390778F0AC014E5F5F4FA3
:101BC0002417350748F04E0F5F1F509317034093BB
:101BD0001603819391939FCFF0E0E0E09CCFCF93E9
:101BE000DF930097E9F0FC01329713821282A091F3
:101BF0001803B0911903ED0130E020E01097A1F433
:101C000020813181820F931F209116033091170399
:101C10002817390709F061C0F0931703E093160302
:101C2000DF91CF910895EA01CE17DF07E8F54A81E9
:101C30005B819E0141155105B1F7E901FB83EA8300
:101C400049915991C40FD51FEC17FD0761F48081AC
:101C500091810296840F951FE9019983888382817F
:101C600093819B838A83F0E0E0E012968D919C91B2
:101C700013970097B9F52D913C911197CD010296DC
:101C8000820F931F209116033091170328173907ED
:101C900039F6309751F51092190310921803B0934A
:101CA0001703A0931603BCCFD383C2834081518115
:101CB000840F951FC817D90761F44E5F5F4F888165
:101CC0009981480F591F518340838A819B81938357
:101CD00082832115310509F0B0CFF0931903E09309
:101CE00018039ECFFD01DC01C0CF13821282D7CF33
:041CF000F894FFCF96
:101CF40000001A03800000000000C1012B015801FC
:101D04000E02890167017B010000000046041904EA
:101D14007504EF031204FF03F0030D0A00496E6912
:101D24007469616C697A696E672E2E2E0047616949
:101D34006E207365742E00436865636B696E67205B
:101D44004144432E2E2E20004661696C6564207444
:101D54006F20696E697469616C697A6520414453C6
:101D64002E0041444320696E697469616C697A6527
:101D740064207375636365737366756C6C792E0088
:101D84006E616E00696E66006F76660070706D003D
:00000001FF
